{
  "abi": [
    {
      "inputs": [],
      "stateMutability": "nonpayable",
      "type": "constructor"
    },
    {
      "inputs": [],
      "name": "TradeFailed",
      "type": "error"
    },
    {
      "inputs": [],
      "name": "Unauthorized",
      "type": "error"
    },
    {
      "inputs": [
        {
          "internalType": "address[]",
          "name": "tokens",
          "type": "address[]"
        },
        {
          "internalType": "address[]",
          "name": "protocols",
          "type": "address[]"
        }
      ],
      "name": "approveHandlers",
      "outputs": [],
      "stateMutability": "payable",
      "type": "function"
    },
    {
      "inputs": [
        {
          "internalType": "address[]",
          "name": "tokens",
          "type": "address[]"
        }
      ],
      "name": "recoverTokens",
      "outputs": [],
      "stateMutability": "payable",
      "type": "function"
    },
    {
      "inputs": [
        {
          "components": [
            {
              "internalType": "uint8",
              "name": "protocol",
              "type": "uint8"
            },
            {
              "internalType": "address",
              "name": "handler",
              "type": "address"
            },
            {
              "internalType": "address",
              "name": "tokenIn",
              "type": "address"
            },
            {
              "internalType": "address",
              "name": "tokenOut",
              "type": "address"
            },
            {
              "internalType": "uint24",
              "name": "fee",
              "type": "uint24"
            },
            {
              "internalType": "uint256",
              "name": "amount",
              "type": "uint256"
            }
          ],
          "internalType": "struct WhackAMoleBotV1.SwapParams[]",
          "name": "paramsArray",
          "type": "tuple[]"
        },
        {
          "internalType": "uint256",
          "name": "minAmountOut",
          "type": "uint256"
        }
      ],
      "name": "whack",
      "outputs": [
        {
          "internalType": "uint256",
          "name": "",
          "type": "uint256"
        }
      ],
      "stateMutability": "payable",
      "type": "function"
    }
  ],
  "bytecode": {
    "object": "0x60a060405234801561001057600080fd5b5033608052608051610f0d61003060003960006102fa0152610f0d6000f3fe6080604052600436106100345760003560e01c80639c832f9314610039578063bc2078fb1461004e578063c0f757c014610061575b600080fd5b61004c610047366004610a9e565b610086565b005b61004c61005c366004610ae0565b61016d565b61007461006f366004610b4c565b61020f565b60405190815260200160405180910390f35b61008e6102ef565b8060005b818110156101675760008484838181106100ae576100ae610bc7565b90506020020160208101906100c39190610bf9565b6040517f70a0823100000000000000000000000000000000000000000000000000000000815230600482015290915061015e9033906001600160a01b038416906370a0823190602401602060405180830381865afa158015610129573d6000803e3d6000fd5b505050506040513d601f19601f8201168201806040525081019061014d9190610c14565b6001600160a01b0384169190610353565b50600101610092565b50505050565b600019838260005b8281101561020557600088888381811061019157610191610bc7565b90506020020160208101906101a69190610bf9565b905060005b838110156101fb5760008888838181106101c7576101c7610bc7565b90506020020160208101906101dc9190610bf9565b90506101f26001600160a01b0384168289610401565b506001016101ab565b5050600101610175565b5050505050505050565b60006102196102ef565b600083815b818110156102ab57600087878381811061023a5761023a610bc7565b905060c002018036038101906102509190610c9d565b905083600003610266578060a00151935061026e565b60a081018490525b805160ff1660000361028a5761028381610554565b93506102a2565b805160ff166001036102a25761029f81610696565b93505b5060010161021e565b50838210156102e6576040517f2d8ef0cf00000000000000000000000000000000000000000000000000000000815260040160405180910390fd5b50949350505050565b336001600160a01b037f00000000000000000000000000000000000000000000000000000000000000001614610351576040517f82b4290000000000000000000000000000000000000000000000000000000000815260040160405180910390fd5b565b6040516001600160a01b0383166024820152604481018290526103fc9084907fa9059cbb00000000000000000000000000000000000000000000000000000000906064015b60408051601f198184030181529190526020810180517bffffffffffffffffffffffffffffffffffffffffffffffffffffffff167fffffffff00000000000000000000000000000000000000000000000000000000909316929092179091526107c3565b505050565b80158061049457506040517fdd62ed3e0000000000000000000000000000000000000000000000000000000081523060048201526001600160a01b03838116602483015284169063dd62ed3e90604401602060405180830381865afa15801561046e573d6000803e3d6000fd5b505050506040513d601f19601f820116820180604052508101906104929190610c14565b155b61050b5760405162461bcd60e51b815260206004820152603660248201527f5361666545524332303a20617070726f76652066726f6d206e6f6e2d7a65726f60448201527f20746f206e6f6e2d7a65726f20616c6c6f77616e63650000000000000000000060648201526084015b60405180910390fd5b6040516001600160a01b0383166024820152604481018290526103fc9084907f095ea7b30000000000000000000000000000000000000000000000000000000090606401610398565b604080516002808252606080830184526000939092919060208301908036833701905050905082604001518160008151811061059257610592610bc7565b60200260200101906001600160a01b031690816001600160a01b0316815250508260600151816001815181106105ca576105ca610bc7565b60200260200101906001600160a01b031690816001600160a01b031681525050600083602001516001600160a01b03166338ed17398560a0015160008530426040518663ffffffff1660e01b8152600401610629959493929190610d2b565b6000604051808303816000875af1158015610648573d6000803e3d6000fd5b505050506040513d6000823e601f3d908101601f191682016040526106709190810190610d9c565b90508060018151811061068557610685610bc7565b602002602001015192505050919050565b6040805161010081018252828201516001600160a01b0390811682526060808501518216602080850191825260808088015162ffffff908116878901908152309588019586524292880192835260a0808b0151908901908152600060c08a0181815260e08b01828152968d01519b517f414bf3890000000000000000000000000000000000000000000000000000000081528b518b16600482015297518a1660248901529251909316604487015295518716606486015291516084850152935160a48401525160c483015251831660e482015290939091169063414bf38990610104016020604051808303816000875af1158015610798573d6000803e3d6000fd5b505050506040513d601f19601f820116820180604052508101906107bc9190610c14565b9392505050565b6000610818826040518060400160405280602081526020017f5361666545524332303a206c6f772d6c6576656c2063616c6c206661696c6564815250856001600160a01b03166108ab9092919063ffffffff16565b90508051600014806108395750808060200190518101906108399190610e42565b6103fc5760405162461bcd60e51b815260206004820152602a60248201527f5361666545524332303a204552433230206f7065726174696f6e20646964206e60448201527f6f742073756363656564000000000000000000000000000000000000000000006064820152608401610502565b60606108ba84846000856108c2565b949350505050565b60608247101561093a5760405162461bcd60e51b815260206004820152602660248201527f416464726573733a20696e73756666696369656e742062616c616e636520666f60448201527f722063616c6c00000000000000000000000000000000000000000000000000006064820152608401610502565b600080866001600160a01b031685876040516109569190610e88565b60006040518083038185875af1925050503d8060008114610993576040519150601f19603f3d011682016040523d82523d6000602084013e610998565b606091505b50915091506109a9878383876109b4565b979650505050505050565b60608315610a23578251600003610a1c576001600160a01b0385163b610a1c5760405162461bcd60e51b815260206004820152601d60248201527f416464726573733a2063616c6c20746f206e6f6e2d636f6e74726163740000006044820152606401610502565b50816108ba565b6108ba8383815115610a385781518083602001fd5b8060405162461bcd60e51b81526004016105029190610ea4565b60008083601f840112610a6457600080fd5b50813567ffffffffffffffff811115610a7c57600080fd5b6020830191508360208260051b8501011115610a9757600080fd5b9250929050565b60008060208385031215610ab157600080fd5b823567ffffffffffffffff811115610ac857600080fd5b610ad485828601610a52565b90969095509350505050565b60008060008060408587031215610af657600080fd5b843567ffffffffffffffff80821115610b0e57600080fd5b610b1a88838901610a52565b90965094506020870135915080821115610b3357600080fd5b50610b4087828801610a52565b95989497509550505050565b600080600060408486031215610b6157600080fd5b833567ffffffffffffffff80821115610b7957600080fd5b818601915086601f830112610b8d57600080fd5b813581811115610b9c57600080fd5b87602060c083028501011115610bb157600080fd5b6020928301989097509590910135949350505050565b634e487b7160e01b600052603260045260246000fd5b80356001600160a01b0381168114610bf457600080fd5b919050565b600060208284031215610c0b57600080fd5b6107bc82610bdd565b600060208284031215610c2657600080fd5b5051919050565b634e487b7160e01b600052604160045260246000fd5b60405160c0810167ffffffffffffffff81118282101715610c6657610c66610c2d565b60405290565b604051601f8201601f1916810167ffffffffffffffff81118282101715610c9557610c95610c2d565b604052919050565b600060c08284031215610caf57600080fd5b610cb7610c43565b823560ff81168114610cc857600080fd5b8152610cd660208401610bdd565b6020820152610ce760408401610bdd565b6040820152610cf860608401610bdd565b6060820152608083013562ffffff81168114610d1357600080fd5b608082015260a0928301359281019290925250919050565b600060a082018783526020878185015260a0604085015281875180845260c086019150828901935060005b81811015610d7b5784516001600160a01b031683529383019391830191600101610d56565b50506001600160a01b03969096166060850152505050608001529392505050565b60006020808385031215610daf57600080fd5b825167ffffffffffffffff80821115610dc757600080fd5b818501915085601f830112610ddb57600080fd5b815181811115610ded57610ded610c2d565b8060051b9150610dfe848301610c6c565b8181529183018401918481019088841115610e1857600080fd5b938501935b83851015610e3657845182529385019390850190610e1d565b98975050505050505050565b600060208284031215610e5457600080fd5b815180151581146107bc57600080fd5b60005b83811015610e7f578181015183820152602001610e67565b50506000910152565b60008251610e9a818460208701610e64565b9190910192915050565b6020815260008251806020840152610ec3816040850160208701610e64565b601f01601f1916919091016040019291505056fea2646970667358221220e75668af077dbec1fec4d2e8edeec37cd59855fc788594733b9b89d21e48939064736f6c63430008140033",
    "linkReferences": {}
  },
  "methodIdentifiers": {
    "approveHandlers(address[],address[])": "bc2078fb",
    "recoverTokens(address[])": "9c832f93",
    "whack((uint8,address,address,address,uint24,uint256)[],uint256)": "c0f757c0"
  },
  "id": 25
}