{
  "abi": [
    {
      "inputs": [],
      "stateMutability": "nonpayable",
      "type": "constructor"
    },
    {
      "inputs": [
        {
          "components": [
            {
              "internalType": "uint8",
              "name": "protocol",
              "type": "uint8"
            },
            {
              "internalType": "address",
              "name": "handler",
              "type": "address"
            },
            {
              "internalType": "address",
              "name": "tokenIn",
              "type": "address"
            },
            {
              "internalType": "address",
              "name": "tokenOut",
              "type": "address"
            },
            {
              "internalType": "uint24",
              "name": "fee",
              "type": "uint24"
            },
            {
              "internalType": "uint256",
              "name": "amount",
              "type": "uint256"
            }
          ],
          "internalType": "struct SimulatorV1.SwapParams",
          "name": "params",
          "type": "tuple"
        }
      ],
      "name": "simulateCurveSwapIn",
      "outputs": [
        {
          "internalType": "uint256",
          "name": "amountOut",
          "type": "uint256"
        }
      ],
      "stateMutability": "nonpayable",
      "type": "function"
    },
    {
      "inputs": [
        {
          "components": [
            {
              "internalType": "uint8",
              "name": "protocol",
              "type": "uint8"
            },
            {
              "internalType": "address",
              "name": "handler",
              "type": "address"
            },
            {
              "internalType": "address",
              "name": "tokenIn",
              "type": "address"
            },
            {
              "internalType": "address",
              "name": "tokenOut",
              "type": "address"
            },
            {
              "internalType": "uint24",
              "name": "fee",
              "type": "uint24"
            },
            {
              "internalType": "uint256",
              "name": "amount",
              "type": "uint256"
            }
          ],
          "internalType": "struct SimulatorV1.SwapParams[]",
          "name": "paramsArray",
          "type": "tuple[]"
        }
      ],
      "name": "simulateSwapIn",
      "outputs": [
        {
          "internalType": "uint256",
          "name": "",
          "type": "uint256"
        }
      ],
      "stateMutability": "nonpayable",
      "type": "function"
    },
    {
      "inputs": [
        {
          "components": [
            {
              "internalType": "uint8",
              "name": "protocol",
              "type": "uint8"
            },
            {
              "internalType": "address",
              "name": "handler",
              "type": "address"
            },
            {
              "internalType": "address",
              "name": "tokenIn",
              "type": "address"
            },
            {
              "internalType": "address",
              "name": "tokenOut",
              "type": "address"
            },
            {
              "internalType": "uint24",
              "name": "fee",
              "type": "uint24"
            },
            {
              "internalType": "uint256",
              "name": "amount",
              "type": "uint256"
            }
          ],
          "internalType": "struct SimulatorV1.SwapParams",
          "name": "params",
          "type": "tuple"
        }
      ],
      "name": "simulateUniswapV2SwapIn",
      "outputs": [
        {
          "internalType": "uint256",
          "name": "amountOut",
          "type": "uint256"
        }
      ],
      "stateMutability": "view",
      "type": "function"
    },
    {
      "inputs": [
        {
          "components": [
            {
              "internalType": "uint8",
              "name": "protocol",
              "type": "uint8"
            },
            {
              "internalType": "address",
              "name": "handler",
              "type": "address"
            },
            {
              "internalType": "address",
              "name": "tokenIn",
              "type": "address"
            },
            {
              "internalType": "address",
              "name": "tokenOut",
              "type": "address"
            },
            {
              "internalType": "uint24",
              "name": "fee",
              "type": "uint24"
            },
            {
              "internalType": "uint256",
              "name": "amount",
              "type": "uint256"
            }
          ],
          "internalType": "struct SimulatorV1.SwapParams",
          "name": "params",
          "type": "tuple"
        }
      ],
      "name": "simulateUniswapV3SwapIn",
      "outputs": [
        {
          "internalType": "uint256",
          "name": "amountOut",
          "type": "uint256"
        }
      ],
      "stateMutability": "nonpayable",
      "type": "function"
    }
  ],
  "bytecode": {
    "object": "0x608060405234801561001057600080fd5b50610b6f806100206000396000f3fe608060405234801561001057600080fd5b506004361061004c5760003560e01c806355abbafc14610051578063766370281461007657806388dbf051146100895780638e888ccc1461009c575b600080fd5b61006461005f366004610866565b6100af565b60405190815260200160405180910390f35b610064610084366004610927565b61014e565b610064610097366004610927565b610185565b6100646100aa366004610927565b610332565b60008082815b818110156101425760008686838181106100d1576100d16109d0565b905060c002018036038101906100e79190610927565b9050836000036100fd578060a001519350610105565b60a081018490525b805160ff166000036101215761011a8161014e565b9350610139565b805160ff166001036101395761013681610332565b93505b506001016100b5565b50909150505b92915050565b600080600061016a84602001518560400151866060015161043d565b9150915061017d8460a001518383610515565b949350505050565b60208101516000908180805b81600f0b83600f0b0361028c576040517f23746eb8000000000000000000000000000000000000000000000000000000008152600f82900b60048201526000906001600160a01b038616906323746eb8906024016020604051808303816000875af1158015610204573d6000803e3d6000fd5b505050506040513d601f19601f8201168201806040525081019061022891906109e6565b905086604001516001600160a01b0316816001600160a01b03160361024f57819350610270565b86606001516001600160a01b0316816001600160a01b031603610270578192505b82600f0b84600f0b14610283575061028c565b50600101610191565b60a08601516040517f5e0d443f000000000000000000000000000000000000000000000000000000008152600f85810b600483015284900b602482015260448101919091526001600160a01b03851690635e0d443f906064016020604051808303816000875af1158015610304573d6000803e3d6000fd5b505050506040513d601f19601f820116820180604052508101906103289190610a03565b9695505050505050565b6020818101516040805160a080820183526000808352948201858152828401868152606080850188815260808087018a8152888c01516001600160a01b039081168952938c015184168652958b015184528a015162ffffff908116825296517fc6a5026a0000000000000000000000000000000000000000000000000000000081528651831660048201529351821660248501529151604484015290519094166064820152905183166084820152909183169063c6a5026a9060a4016080604051808303816000875af115801561040d573d6000803e3d6000fd5b505050506040513d601f19601f820116820180604052508101906104319190610a30565b50919695505050505050565b600080600061044c8585610660565b50905060008061045d88888861076f565b6001600160a01b0316630902f1ac6040518163ffffffff1660e01b8152600401606060405180830381865afa15801561049a573d6000803e3d6000fd5b505050506040513d601f19601f820116820180604052508101906104be9190610a94565b506dffffffffffffffffffffffffffff1691506dffffffffffffffffffffffffffff169150826001600160a01b0316876001600160a01b031614610503578082610506565b81815b90999098509650505050505050565b60008084116105915760405162461bcd60e51b815260206004820152602b60248201527f556e697377617056324c6962726172793a20494e53554646494349454e545f4960448201527f4e5055545f414d4f554e5400000000000000000000000000000000000000000060648201526084015b60405180910390fd5b6000831180156105a15750600082115b6106135760405162461bcd60e51b815260206004820152602860248201527f556e697377617056324c6962726172793a20494e53554646494349454e545f4c60448201527f49515549444954590000000000000000000000000000000000000000000000006064820152608401610588565b6000610621856103e5610847565b9050600061062f8285610847565b9050600061064983610643886103e8610847565b9061085a565b90506106558183610aed565b979650505050505050565b600080826001600160a01b0316846001600160a01b0316036106ea5760405162461bcd60e51b815260206004820152602560248201527f556e697377617056324c6962726172793a204944454e544943414c5f4144445260448201527f45535345530000000000000000000000000000000000000000000000000000006064820152608401610588565b826001600160a01b0316846001600160a01b03161061070a57828461070d565b83835b90925090506001600160a01b0382166107685760405162461bcd60e51b815260206004820152601e60248201527f556e697377617056324c6962726172793a205a45524f5f4144445245535300006044820152606401610588565b9250929050565b600080600061077e8585610660565b604080516bffffffffffffffffffffffff19606094851b811660208084019190915293851b81166034830152825180830360280181526048830184528051908501207fff0000000000000000000000000000000000000000000000000000000000000060688401529a90941b9093166069840152607d8301989098527f96e8ac4277198ff8b6f785478aa9a39f403cb768dd02cbee326c3e7da348845f609d808401919091528851808403909101815260bd909201909752805196019590952095945050505050565b60006108538284610b0f565b9392505050565b60006108538284610b26565b6000806020838503121561087957600080fd5b823567ffffffffffffffff8082111561089157600080fd5b818501915085601f8301126108a557600080fd5b8135818111156108b457600080fd5b86602060c0830285010111156108c957600080fd5b60209290920196919550909350505050565b803560ff811681146108ec57600080fd5b919050565b6001600160a01b038116811461090657600080fd5b50565b80356108ec816108f1565b803562ffffff811681146108ec57600080fd5b600060c0828403121561093957600080fd5b60405160c0810181811067ffffffffffffffff8211171561096a57634e487b7160e01b600052604160045260246000fd5b604052610976836108db565b815261098460208401610909565b602082015261099560408401610909565b60408201526109a660608401610909565b60608201526109b760808401610914565b608082015260a083013560a08201528091505092915050565b634e487b7160e01b600052603260045260246000fd5b6000602082840312156109f857600080fd5b8151610853816108f1565b600060208284031215610a1557600080fd5b5051919050565b805163ffffffff811681146108ec57600080fd5b60008060008060808587031215610a4657600080fd5b845193506020850151610a58816108f1565b9250610a6660408601610a1c565b6060959095015193969295505050565b80516dffffffffffffffffffffffffffff811681146108ec57600080fd5b600080600060608486031215610aa957600080fd5b610ab284610a76565b9250610ac060208501610a76565b9150610ace60408501610a1c565b90509250925092565b634e487b7160e01b600052601160045260246000fd5b600082610b0a57634e487b7160e01b600052601260045260246000fd5b500490565b808202811582820484141761014857610148610ad7565b8082018082111561014857610148610ad756fea2646970667358221220e356eadef5c9ba78dc02924fa374e49a14a1c39f7523faef2ea2243ff497574564736f6c63430008140033",
    "linkReferences": {}
  },
  "methodIdentifiers": {
    "simulateCurveSwapIn((uint8,address,address,address,uint24,uint256))": "88dbf051",
    "simulateSwapIn((uint8,address,address,address,uint24,uint256)[])": "55abbafc",
    "simulateUniswapV2SwapIn((uint8,address,address,address,uint24,uint256))": "76637028",
    "simulateUniswapV3SwapIn((uint8,address,address,address,uint24,uint256))": "8e888ccc"
  },
  "id": 24
}